{
  "address": "0xf33EBEdeF9238448cad848c4eb335efF893A03F5",
  "abi": [
    {
      "inputs": [],
      "stateMutability": "nonpayable",
      "type": "constructor"
    },
    {
      "inputs": [
        {
          "internalType": "address",
          "name": "target",
          "type": "address"
        }
      ],
      "name": "callContract",
      "outputs": [],
      "stateMutability": "nonpayable",
      "type": "function"
    },
    {
      "inputs": [],
      "name": "owner",
      "outputs": [
        {
          "internalType": "address",
          "name": "",
          "type": "address"
        }
      ],
      "stateMutability": "view",
      "type": "function"
    }
  ],
  "transactionHash": "0xb0826462bc22da055de9ced41b8cc2492ec2d84740e2d296c0f0af3f543b2ba7",
  "args": [],
  "numDeployments": 2,
  "solcInputHash": "d25467a9d04c9ebde4d9dfa67c8214f9",
  "bytecode": "0x608060405234801561001057600080fd5b50336000806101000a81548173ffffffffffffffffffffffffffffffffffffffff021916908373ffffffffffffffffffffffffffffffffffffffff16021790555061030e806100606000396000f3fe608060405234801561001057600080fd5b50600436106100365760003560e01c806368874f1f1461003b5780638da5cb5b14610057575b600080fd5b610055600480360381019061005091906101ab565b610075565b005b61005f610172565b60405161006c919061022b565b60405180910390f35b60008173ffffffffffffffffffffffffffffffffffffffff166040516024016040516020818303038152906040527f732b7a8d000000000000000000000000000000000000000000000000000000007bffffffffffffffffffffffffffffffffffffffffffffffffffffffff19166020820180517bffffffffffffffffffffffffffffffffffffffffffffffffffffffff838183161783525050505060405161011e9190610214565b6000604051808303816000865af19150503d806000811461015b576040519150601f19603f3d011682016040523d82523d6000602084013e610160565b606091505b505090508061016e57600080fd5b5050565b60008054906101000a900473ffffffffffffffffffffffffffffffffffffffff1681565b6000813590506101a5816102c1565b92915050565b6000602082840312156101bd57600080fd5b60006101cb84828501610196565b91505092915050565b6101dd8161025c565b82525050565b60006101ee82610246565b6101f88185610251565b935061020881856020860161028e565b80840191505092915050565b600061022082846101e3565b915081905092915050565b600060208201905061024060008301846101d4565b92915050565b600081519050919050565b600081905092915050565b60006102678261026e565b9050919050565b600073ffffffffffffffffffffffffffffffffffffffff82169050919050565b60005b838110156102ac578082015181840152602081019050610291565b838111156102bb576000848401525b50505050565b6102ca8161025c565b81146102d557600080fd5b5056fea26469706673582212202d16cf9550f0269e0d7a9499504414a7235da0761c4013efe92eddb84f1ed63264736f6c63430008000033",
  "devdoc": {
    "kind": "dev",
    "methods": {},
    "version": 1
  },
  "userdoc": {
    "kind": "user",
    "methods": {},
    "version": 1
  },
  "storageLayout": {
    "storage": [
      {
        "astId": 3,
        "contract": "contracts/Proxy.sol:Proxy",
        "label": "owner",
        "offset": 0,
        "slot": "0",
        "type": "t_address"
      }
    ],
    "types": {
      "t_address": {
        "encoding": "inplace",
        "label": "address",
        "numberOfBytes": "20"
      }
    }
  }
}